:100000000C945E000C9486000C9486000C94860080
:100010000C9486000C9486000C9486000C94860048
:100020000C9486000C9486000C9486000C94860038
:100030000C9486000C9486000C9486000C94860028
:100040000C9411040C9486000C94DF030C94B903F7
:100050000C9486000C9486000C9486000C94860008
:100060000C9486000C948600000000080002010039
:100070000003040700000000000000000000000072
:10008000250028002B0000000000240027002A0083
:10009000040404040404040402020202020203032E
:1000A0000303030301020408102040800102040836
:1000B00010200102040810205B048A0611241FBED0
:1000C000CFEFD8E0DEBFCDBF21E0AEE2B1E001C0AE
:1000D0001D92AE3DB207E1F711E0A0E0B1E0ECE621
:1000E000F2E102C005900D92AE32B107D9F710E0EF
:1000F000CDE5D0E004C02197FE010E940307CC3576
:10010000D107C9F70E9496040C9429090C940000A9
:1001100090E0FC01EC55FF4F2491FC01E057FF4FAC
:100120008491882399F090E0880F991FFC01EA5789
:10013000FF4FA591B491FC01E458FF4F8591949134
:100140008FB7F894EC91E22BEC938FBF0895CF9288
:10015000DF92EF92FF920F931F93CF93DF936C0187
:100160007A018B01C0E0D0E0CE15DF0589F0D8011F
:100170006D918D01D601ED91FC910190F081E02D02
:10018000C6010995892B11F47E0102C02196ECCF9E
:10019000C701DF91CF911F910F91FF90EF90DF90FA
:1001A000CF900895FC01918D828D981761F0828D1A
:1001B000DF01A80FB11D5D968C91928D9F5F9F739B
:1001C000928F90E008958FEF9FEF0895FC01918D3D
:1001D000828D981731F0828DE80FF11D858D90E0AA
:1001E00008958FEF9FEF0895FC01918D228D892F47
:1001F00090E0805C9F4F821B91098F73992708952F
:1002000087E391E00E94F40021E0892B09F420E0CB
:10021000822F0895FC01848DDF01A80FB11DA35A20
:10022000BF4F2C91848D90E001968F739927848F16
:10023000A689B7892C93A089B1898C9180648C930D
:10024000938D848D981306C00288F389E02D8081F8
:100250008F7D80830895EF92FF920F931F93CF932A
:10026000DF93EC0181E0888F9B8D8C8D981305C006
:10027000E889F989808185FD24C0F62E0B8D10E078
:100280000F5F1F4F0F731127E02E8C8DE8120CC0EB
:100290000FB607FCFACFE889F989808185FFF5CF91
:1002A000CE010E940A01F1CF8B8DFE01E80FF11DF6
:1002B000E35AFF4FF0820B8FEA89FB8980818062CD
:1002C00007C0EE89FF896083E889F98980818064AD
:1002D000808381E090E0DF91CF911F910F91FF909B
:1002E000EF900895CF93DF93EC01888D8823C9F0B8
:1002F000EA89FB89808185FD05C0A889B9898C912F
:1003000086FD0FC00FB607FCF5CF808185FFF2CFC9
:10031000A889B9898C9185FFEDCFCE010E940A0191
:10032000E7CFDF91CF91089580E090E0892B29F00D
:100330000E94000181110C940000089590E0FC01DE
:10034000E859FF4F3491FC01EC55FF4F2491FC011B
:10035000E057FF4FE491EE2309F43BC0332339F11A
:10036000333091F038F43130A9F0323001F584B5F2
:100370008F7D12C0373091F03830A1F03430B9F4AD
:10038000809180008F7D03C0809180008F77809363
:1003900080000DC084B58F7784BD09C08091B00006
:1003A0008F7703C08091B0008F7D8093B000F0E024
:1003B000EE0FFF1FE458FF4FA591B4918FB7F8944B
:1003C000EC91611103C020952E2301C02E2B2C939C
:1003D0008FBF08951F93CF93DF93182FEB010E94D7
:1003E0008800209711F460E004C0CF3FD10539F4B4
:1003F00061E0812FDF91CF911F910C949E01E12F3D
:10040000F0E0E859FF4FE491E330F9F048F4E130CF
:10041000B9F0E230A1F584B5806284BDC8BD34C0B6
:10042000E730E9F0E83019F1E43049F580918000D7
:10043000806280938000D0938B00C0938A0024C098
:1004400084B5806884BDC7BD1FC08091800080686E
:1004500080938000D0938900C093880015C080915C
:10046000B00080688093B000C093B3000DC080914D
:10047000B00080628093B000C093B40005C0C03863
:10048000D1050CF0B5CFAFCFDF91CF911F9108957B
:100490003FB7F8948091330190913401A0913501D8
:1004A000B091360126B5A89B05C02F3F19F00196E3
:1004B000A11DB11D3FBFBA2FA92F982F8827820FEA
:1004C000911DA11DB11DBC01CD0142E0660F771F3A
:1004D000881F991F4A95D1F708958F929F92AF92E6
:1004E000BF92CF92DF92EF92FF926B017C010E944C
:1004F00048024B015C01C114D104E104F104F1F0A4
:100500000E944802DC01CB0188199909AA09BB099C
:10051000883E9340A105B10570F321E0C21AD108CD
:10052000E108F10888EE880E83E0981EA11CB11C3A
:10053000C114D104E104F10419F7DDCFFF90EF906D
:10054000DF90CF90BF90AF909F908F900895FF92D3
:100550000F931F93CF93DF93F62E8A01E901682F43
:100560008CE00E949E016F2D8DE00E949E01B801DB
:1005700083E00E94EA01BE018BE0DF91CF911F91E1
:100580000F91FF900C94EA01CF93DF932091D80153
:100590003091D9018217930778F4C091D401D0919A
:1005A000D5016CE270E08C0F9D1F0E940E09009730
:1005B00019F08C1B9D0B02C08FEF9FEFDF91CF9145
:1005C00008950E940009FC0124813581232B31F418
:1005D00021E061157105A1F0FB0108C0FC018081DB
:1005E00091816115710531F421E0FC01808188233E
:1005F00039F005C00E94190921E0892B09F020E09B
:10060000822F08950F931F93CF93DF93EC0188817E
:100610009981009729F02A813B812617370788F4B2
:100620008B016F5F7F4F0E943608009761F09983BE
:1006300088831B830A832C813D81232B11F4FC01C9
:10064000108281E001C080E0DF91CF911F910F9176
:100650000895EF92FF920F931F93CF93DF93EC01D6
:100660007B018A01BA010E9402032881398181112C
:100670000DC02115310519F0C9010E949E0719828C
:1006800018821D821C821B821A8206C01D830C8365
:10069000B701C9010E942209CE01DF91CF911F91BC
:1006A0000F91FF90EF900895DF92EF92FF920F93DA
:1006B0001F93CF93DF937C01EB018A014617570705
:1006C00020F48D2FEA01062F182FF70111821082D6
:1006D000138212821582148240E050E068E171E0DA
:1006E000C7010E9429038091D8019091D901C817B0
:1006F000D907B0F58017910708F48C01E091D40177
:10070000F091D501E00FF11FD08010826091D401EB
:100710007091D5016C0F7D1F6115710561F0FB01B2
:1007200001900020E9F73197AF01461B570BC70135
:100730000E9429030EC0F70180819181009711F07A
:100740000E949E07F7011182108215821482138283
:100750001282E091D401F091D501E00FF11FD08217
:10076000C701DF91CF911F910F91FF90EF90DF9024
:1007700008951F920F920FB60F9211242F933F935B
:100780004F935F936F937F938F939F93AF93BF9399
:10079000EF93FF9387E391E00E940A01FF91EF91AD
:1007A000BF91AF919F918F917F916F915F914F9189
:1007B0003F912F910F900FBE0F901F9018951F9291
:1007C0000F920FB60F9211242F938F939F93EF9355
:1007D000FF93E0914701F09148018081E0914D0144
:1007E000F0914E0182FD12C09081809150018F5F87
:1007F0008F7320915101821751F0E0915001F0E088
:10080000E95CFE4F958F8093500101C08081FF917C
:10081000EF919F918F912F910F900FBE0F901F908E
:1008200018951F920F920FB60F9211242F933F939A
:100830008F939F93AF93BF9380912F01909130013D
:10084000A0913101B091320130912E0123E0230FAC
:100850002D3720F40196A11DB11D05C026E8230FF8
:100860000296A11DB11D20932E0180932F0190931C
:100870003001A0933101B093320180913301909106
:100880003401A0913501B09136010196A11DB11D31
:100890008093330190933401A0933501B0933601D6
:1008A000BF91AF919F918F913F912F910F900FBE6C
:1008B0000F901F901895E7E3F1E01382128288EE03
:1008C00093E0A0E0B0E084839583A683B7838AE0B9
:1008D00091E09183808385EC90E09587848784EC18
:1008E00090E09787868780EC90E0918B808B81ECFD
:1008F00090E0938B828B82EC90E0958B848B86ECDE
:1009000090E0978B868B118E128E138E148EE4EDF1
:10091000F1E011821082138212821582148240E06B
:1009200050E068E171E0CF010C942903CF93DF938D
:10093000CDB7DEB768970FB6F894DEBF0FBECDBF58
:10094000789484B5826084BD84B5816084BD85B5AA
:10095000826085BD85B5816085BD80916E008160B6
:1009600080936E001092810080918100826080935C
:10097000810080918100816080938100809180005E
:100980008160809380008091B10084608093B10089
:100990008091B00081608093B00080917A00846083
:1009A00080937A0080917A00826080937A008091AF
:1009B0007A00816080937A0080917A0080688093C9
:1009C0007A001092C10083E00E9488008BE00E94B0
:1009D00088008CE00E9488008DE00E948800E091F1
:1009E0004701F091480182E08083E0914301F0915A
:1009F00044011082E0914501F09146018FEC808323
:100A000010924F01E0914B01F0914C0186E0808300
:100A1000E0914901F0914A01808180618083E091F9
:100A20004901F0914A01808188608083E091490109
:100A3000F0914A01808180688083E0914901F091C2
:100A40004A0180818F7D808387E391E00E94F400DA
:100A5000892BA1F16AE070E080E090E00E946D02D5
:100A600087E391E00E94F400181619066CF787E3FB
:100A700091E00E94D20089831A820091D8011091DE
:100A8000D9010F5F1F4FB80184ED91E00E9402036E
:100A90008823D1F22091D4013091D5018091D801E1
:100AA0009091D901BE016F5F7F4F820F931F0E940B
:100AB00022091093D9010093D801C6CF4091D801E3
:100AC0005091D9014115510509F421C16091D4011A
:100AD0007091D50187E391E00E94A70042E050E0C9
:100AE00066E171E087E391E00E94A70080E090E07A
:100AF0000E94C4024C016C018FEFC81AD80AC601CB
:100B00000E94C4025C017C018FEFE81AF80AC70159
:100B10000E94C4028C01A40160E070E0CE01439603
:100B20000E945403A501B601CE010D960E94540304
:100B3000A801B701CE0107960E9454034091D80145
:100B40005091D901B8016F5F7F4FCE0101960E948D
:100B500054038D859E85009719F00E94900603C06E
:100B600060E070E0CB01F62EB72E8F81988500975C
:100B700019F00E94900603C060E070E0CB01E62E01
:100B8000A72E89819A81009719F00E94900603C0D0
:100B900060E070E0CB016B010F2D1B2D0F3F1105A5
:100BA00019F014F00FEF10E017FF02C000E010E0A2
:100BB0008E2D9A2D8F3F910519F014F08FEF90E054
:100BC0007C0197FF02C0E12CF12C69E171E0CE01BC
:100BD00043960E94E302882321F09701A80160E078
:100BE00033C06BE171E0CE0143960E94E30288239B
:100BF00031F02FEF30E04FEF50E060E034C06EE1B5
:100C000071E0CE0143960E94E302882321F0970110
:100C1000A80161E035C060E271E0CE0143960E9418
:100C2000E302882331F02FEF30E04FEF50E061E036
:100C30003EC063E271E0CE0143960E94E302882346
:100C400029F09701A80161E081E01BC065E271E035
:100C5000CE0143960E94E302882339F02FEF30E063
:100C60004FEF50E061E081E023C068E271E0CE0127
:100C700043960E94E302882369F09701A80160E08F
:100C800080E00E94A702B601DD0C880B990B0E9440
:100C90006D021FC06AE271E0CE0143960E94E3023A
:100CA000882369F02FEF30E04FEF50E060E080E004
:100CB0000E94A7026AE070E080E090E00EC060E071
:100CC00070E083E00E94EA0160E070E08BE00E9447
:100CD000EA0161E070E080E090E00E946D0240E097
:100CE00050E068E171E084ED91E00E942903898180
:100CF0009A810E949E078F8198850E949E078D850C
:100D00009E850E949E078B899C890E949E070E9457
:100D100094019ACE8091D4019091D5010C949E07B4
:100D20001F93FC0199278827BC01E8941191103288
:100D3000E9F3193010F01E30C8F31B3251F01D32A8
:100D400049F4689406C00E94B706610F711D811DA9
:100D5000911D119110531A30B0F33EF49095809587
:100D6000709561957F4F8F4F9F4F1F910895592F19
:100D7000482F372F262F660F771F881F991F660F62
:100D8000771F881F991F620F731F841F951F660F9F
:100D9000771F881F991F08952F923F924F925F925D
:100DA0006F927F928F929F92AF92BF92CF92DF927B
:100DB000EF92FF920F931F93CF93DF93CDB7DEB7E0
:100DC000CA1BDB0B0FB6F894DEBF0FBECDBF099474
:100DD0002A88398848885F846E847D848C849B84CB
:100DE000AA84B984C884DF80EE80FD800C811B81D9
:100DF000AA81B981CE0FD11D0FB6F894DEBF0FBE08
:100E0000CDBFED010895EE0FFF1F0590F491E02D89
:100E10000994CF93DF938230910510F482E090E043
:100E2000E091DC01F091DD0120E030E0C0E0D0E0B5
:100E3000309711F14081518148175907C0F0481788
:100E4000590761F482819381209719F09B838A83EB
:100E50002BC09093DD018093DC0126C02115310564
:100E600019F04217530718F49A01BE01DF01EF0190
:100E70000280F381E02DDCCF2115310509F1281B1B
:100E8000390B2430310590F412968D919C91139773
:100E90006115710521F0FB019383828304C0909357
:100EA000DD018093DC01FD01329644C0FD01E20FBB
:100EB000F31F81939193225031092D933C933AC0B3
:100EC0002091DA013091DB01232B41F420910201C2
:100ED000309103013093DB012093DA01209100016E
:100EE000309101012115310541F42DB73EB74091F4
:100EF000040150910501241B350BE091DA01F091BA
:100F0000DB01E217F307A0F42E1B3F0B281739076C
:100F100078F0AC014E5F5F4F2417350748F04E0F55
:100F20005F1F5093DB014093DA018193919302C0DC
:100F3000E0E0F0E0CF01DF91CF9108950F931F9390
:100F4000CF93DF93009709F48CC0FC013297138292
:100F500012820091DC011091DD010115110581F46F
:100F600020813181820F931F2091DA013091DB01C2
:100F70002817390779F5F093DB01E093DA0171C0A6
:100F8000D80140E050E0AE17BF0750F412962D9103
:100F90003C911397AD012115310509F1D901F3CF2A
:100FA0009D01DA013383228360817181860F971F4F
:100FB0008217930769F4EC0128813981260F371FC6
:100FC0002E5F3F4F318320838A819B81938382836D
:100FD000452B29F4F093DD01E093DC0142C0139628
:100FE000FC93EE931297ED01499159919E01240FC4
:100FF000351FE217F30771F480819181840F951FEB
:10100000029611969C938E938281938113969C9362
:101010008E931297E0E0F0E0D80112968D919C91AA
:101020001397009719F0F8018C01F6CF8D919C91E0
:1010300098012E5F3F4F820F931F2091DA0130916C
:10104000DB012817390769F4309729F41092DD0184
:101050001092DC0102C0138212821093DB01009314
:10106000DA01DF91CF911F910F910895A0E0B0E0D8
:10107000ECE3F8E00C94D006EC01009721F4CB01EE
:101080000E940907B8C0FC01E60FF71F9C0122501F
:101090003109E217F30708F4ACC0D9010D911C9196
:1010A000119706171707B0F00530110508F49FC017
:1010B000C80104978617970708F499C002501109D0
:1010C000061B170B019311936D937C93CF010E9424
:1010D0009E078DC05B01A01AB10A4C01800E911EC3
:1010E000A091DC01B091DD0140E050E0E12CF12C59
:1010F000109709F44AC0A815B905D1F56D907C90F8
:101100001197630182E0C80ED11CCA14DB0480F180
:10111000A3014A195B096A0182E0C80ED11C12962C
:10112000BC9012971396AC91B5E0CB16D10440F069
:10113000B282A38351834083D9016D937C930AC00B
:101140000E5F1F4FC301800F911FF90191838083B0
:10115000EB2DFA2FE114F10431F0D7011396FC9333
:10116000EE93129744C0F093DD01E093DC013FC0A1
:101170008D919C9111974817590708F4AC017D0196
:1011800012960D90BC91A02DB3CF8091DA01909171
:10119000DB0188159905E1F446175707C8F48091DB
:1011A000000190910101009741F48DB79EB74091E5
:1011B000040150910501841B950BE817F907C8F449
:1011C000F093DB01E093DA01F901718360830FC0D2
:1011D000CB010E9409077C01009759F0A801BE01CC
:1011E0000E940509CE010E949E07C70104C0CE01DE
:1011F00002C080E090E0CDB7DEB7EEE00C94EC06E4
:1012000081E090E0F8940C942909FB01DC0102C014
:1012100001900D9241505040D8F70895FC01819102
:10122000861721F08823D9F7992708953197CF01A0
:101230000895FB01DC018D91019080190110D9F313
:10124000990B0895FB01DC0101900D920020E1F75C
:10125000089510E0CDE5D0E004C0FE010E94030730
:0C1260002196CE35D107C9F7F894FFCFD6
:10126C000000DE018000000000002B01A700F4004C
:10127C00D200E60072010D0A004C004C41005200F5
:0E128C0052410046004641004200424100002F
:00000001FF
